:100000000C945E000C94EC060C94C5060C948600CF
:100010000C9486000C9486000C9486000C94860048
:100020000C9486000C9486000C9486000C94860038
:100030000C9486000C9486000C9486000C94860028
:100040000C947B060C9486000C9439070C941307CF
:100050000C9486000C9486000C9486000C94860008
:100060000C9486000C9486000000000024002700F9
:100070002A0000000000250028002B0004040404CE
:100080000404040402020202020203030303030342
:10009000010204081020408001020408102001021F
:1000A00004081020000000080002010000030407FB
:1000B00000000000000000006B07221011241FBE8A
:1000C000CFEFD8E0DEBFCDBF12E0A0E0B1E0E6E6C2
:1000D000FBE202C005900D92A234B107D9F725E0EA
:1000E000A2E4B2E001C01D92AF3AB207E1F710E01E
:1000F000CDE5D0E004C02197FE010E94AE13CC35BF
:10010000D107C9F70E9480080C94A6150C94000032
:1001100090E0FC01EC55FF4F2491FC01E057FF4FAC
:100120003491FC01E458FF4FE491EE23C9F02223FF
:1001300039F0233001F1A8F4213019F1223029F1EE
:10014000F0E0EE0FFF1FEE58FF4FA591B4918FB76F
:10015000F894EC91611126C030953E233C938FBFFB
:1001600008952730A9F02830C9F0243049F780914C
:1001700080008F7D03C0809180008F778093800006
:10018000DFCF84B58F7784BDDBCF84B58F7DFBCF88
:100190008091B0008F778093B000D2CF8091B00073
:1001A0008F7DF9CF3E2BDACFCF93DF9390E0FC0128
:1001B000E057FF4F249184589F4FFC01849188237E
:1001C000D1F090E0880F991FFC01E859FF4FA591ED
:1001D000B491FC01EE58FF4FC591D49161110EC04E
:1001E0009FB7F8948C91E22FE0958E238C93288111
:1001F000E223E8839FBFDF91CF9108958FB7F894F2
:10020000EC91E22BEC938FBFF6CF8E3008F08E503E
:100210008770806480937C0080917A0080648093F2
:100220007A0080917A0086FDFCCF809178009091D1
:10023000790008953FB7F89480915202909153024B
:10024000A0915402B091550226B5A89B05C02F3F3E
:1002500019F00196A11DB11D3FBFBA2FA92F982FEC
:100260008827BC01CD01620F711D811D911D42E0E7
:10027000660F771F881F991F4A95D1F708958F92AF
:100280009F92AF92BF92CF92DF92EF92FF920E9425
:100290001A014B015C0188EBC82E8BE0D82EE12CB3
:1002A000F12C0E941A01681979098A099B09683E94
:1002B000734081059105A8F321E0C21AD108E10835
:1002C000F10888EE880E83E0981EA11CB11CC114B1
:1002D000D104E104F10429F7FF90EF90DF90CF9073
:1002E000BF90AF909F908F90089581E080934702D8
:1002F000089581E08093480208950895AF92BF92D7
:10030000CF92DF92EF92FF920F931F93CF93DF93E1
:100310006C017B018B01040F151FEB015E01AE1810
:10032000BF08C017D10759F06991D601ED91FC9132
:100330000190F081E02DC6010995892B79F7C5015F
:10034000DF91CF911F910F91FF90EF90DF90CF90B1
:10035000BF90AF900895FC01538D448D252F30E060
:10036000842F90E0821B930B541710F0CF960895C2
:1003700001970895FC01918D828D981761F0A28DEF
:10038000AE0FBF2FB11D5D968C91928D9F5F9F73B5
:10039000928F90E008958FEF9FEF0895FC01918D6B
:1003A000828D981731F0828DE80FF11D858D90E0D8
:1003B00008958FEF9FEF0895FC01918D228D892F75
:1003C00090E0805C9F4F821B91098F73992708955D
:1003D00086E592E00E94DC0121E0892B09F420E00F
:1003E000822F089580E090E0892B29F00E94E80197
:1003F00081110C9400000895FC01A48DA80FB92F61
:10040000B11DA35ABF4F2C91848D90E001968F733C
:100410009927848FA689B7892C93A089B1898C915B
:10042000837080648C93938D848D981306C00288AA
:10043000F389E02D80818F7D80830895EF92FF9274
:100440000F931F93CF93DF93EC0181E0888F9B8DF7
:100450008C8D98131AC0E889F989808185FF15C0B1
:100460009FB7F894EE89FF896083E889F9898081D4
:100470008370806480839FBF81E090E0DF91CF91A3
:100480001F910F91FF90EF900895F62E0B8D10E0C5
:100490000F5F1F4F0F731127E02E8C8D8E110CC034
:1004A0000FB607FCFACFE889F989808185FFF5CF7F
:1004B000CE010E94FC01F1CFEB8DEC0FFD2FF11D61
:1004C000E35AFF4FF0829FB7F8940B8FEA89FB89BC
:1004D00080818062CFCFCF93DF93EC01888D88231A
:1004E000B9F0AA89BB89E889F9898C9185FD03C097
:1004F000808186FD0DC00FB607FCF7CF8C9185FF7C
:10050000F2CF808185FFEDCFCE010E94FC01E9CFC3
:10051000DF91CF910895089590E080E008958EBD19
:1005200000000DB407FEFDCF8EB508950F931F9305
:10053000CF93DF93D0916B0305E713E0C1E060E058
:100540008D2F0E9488008C2F0E948F02F8018191CC
:100550008F010E948F028C2F0E948F02F8018781E9
:100560000E948F0261E08D2F0E948800CF5FC9300A
:1005700031F7DF91CF911F910F9108951F93CF9382
:10058000DF93182FD62FC0916B0360E08C2F0E9451
:100590008800812F0E948F028D2F0E948F02812F51
:1005A0000E948F028D2F0E948F0261E08C2FDF91BD
:1005B000CF911F910C948800CF93DF93EC0160E002
:1005C0008E810E94880061E08E810E94880060E038
:1005D0008E810E9488008BE891E00197F1F7DF910E
:1005E000CF910895CF92DF92EF92FF920F931F93D6
:1005F000CF93DF936C017C0187E0E80EF11CD0E023
:10060000C0E0062F10E0B8010C2E02C0759567956A
:100610000A94E2F76170F70181917F010E948800DE
:100620002196C430D10579F7C601DF91CF911F9192
:100630000F91FF90EF90DF90CF900C94DC02CF925F
:10064000DF92EF92FF920F931F93CF93DF93EC0112
:10065000F62E642F8C810E9488008D818F3F19F0C7
:1006600060E00E9488000F2D10E08F8584FF25C078
:100670006E0187E0C80ED11CF12CE12CB8010E2CC4
:1006800002C0759567950A94E2F76170F601819151
:100690006F010E948800FFEFEF1AFF0A88E0E8165A
:1006A000F10461F7CE01DF91CF911F910F91FF907F
:1006B000EF90DF90CF900C94DC02B80184E0759548
:1006C00067958A95E1F7CE010E94F2026F2DCE0167
:1006D000DF91CF911F910F91FF90EF90DF90CF901E
:1006E0000C94F20240E0682F83E593E00C941F0322
:1006F00081E00E9472038BE39FE10197F1F7089577
:10070000CF93DF93823029F49091620398609093A5
:100710006203809366031092670380E4809368030A
:1007200080E18093690380E580936A0361E08091B2
:1007300057030E94D400809158038F3F19F061E065
:100740000E94D40061E0809159030E94D400C3E567
:10075000D3E09E01235533408091620384FD0BC09A
:1007600084E090E021962817390744F461E08E81F7
:100770000E94D400EECF88E090E0F4CF8BE39DE0C0
:100780000197F1F760E0809157030E94880060E0D4
:10079000809159030E948800809158038F3F19F07F
:1007A00060E00E9488008091620384FD34C063E0B1
:1007B00083E593E00E94F202CBE4D6E4CE010197F8
:1007C000F1F763E083E593E00E94F2022197F1F7ED
:1007D00063E083E593E00E94F20283E592E00197F3
:1007E000F1F762E083E593E00E94F20280916203F8
:1007F00080620E94720384E0809363038CE00E9415
:1008000072030E94780382E08093640386E0DF91A4
:10081000CF910C94720380620E9472038BE496E481
:100820000197F1F78091620380620E94720383E571
:1008300092E00197F1F78091620380620E94720357
:10084000D5CF90916603891710F08FEF890FE82FAD
:10085000F0E0ED5AFC4F848980680C9472030F938A
:100860001F93CF93DF938C01EB010E94780380E00C
:100870000E942104F801448155816081718183E5E2
:1008800093E00E947E0181E00E9421044C815D8101
:100890006881798183E593E0DF91CF911F910F917A
:1008A0000C947E0141E00E941F0381E090E00895D6
:1008B000CF93DF93EC0190E080E00E94F2118883F7
:1008C00081E090E00E94F2118983CE01DF91CF9107
:1008D0000895CF92DF92EF92FF920F931F93CF93E1
:1008E000DF93EB017B0126E0E20EF11C8B016C0132
:1008F000C61AD70AC601800F911F0E94F211F80193
:1009000081938F01EE15FF05A9F7CE01DF91CF91FD
:100910001F910F91FF90EF90DF90CF900895CF92AD
:10092000DF92EF92FF920F931F93CF93DF9300D04C
:10093000CDB7DEB7CE0101960E945804C980DA8097
:10094000F12CE12C02E010E0EC14FD0464F4B80199
:100950006F567A4FC8010E9469048FEFE81AF80AAF
:100960000A5F1F4FF1CF0F900F90DF91CF911F9132
:100970000F91FF90EF90DF90CF9008951F93CF934A
:10098000DF93EC01188190E080E00E94F2111817CB
:1009900029F0612F90E080E00E94FA11198181E036
:1009A00090E00E94F211181729F0612F81E090E089
:1009B0000E94FA11CE01DF91CF911F9108954F92BD
:1009C0005F926F927F928F929F92AF92BF92CF92DF
:1009D000DF92EF92FF92CF93DF9388E0C82ED12C65
:1009E000E12CF12C90E1892E912CA12CB12C0E94AC
:1009F000AE10A70196010E9408122B01EB010E9484
:100A0000AE10A50194010E9408129B01509286032A
:100A100040928503709388036093870340918D0310
:100A200050918E03EBE6F3E090E080E0A0E08417C5
:100A3000950774F466A177A1C617D70731F460A5AE
:100A400071A52617370709F4A1E001963496EFCF78
:100A5000A111CDCFDF91CF91FF90EF90DF90CF909C
:100A6000BF90AF909F908F907F906F905F904F90CE
:100A700008958F929F92AF92BF920F931F93CF933F
:100A8000DF93CDB7DEB7A1970FB6F894DEBF0FBEE8
:100A9000CDBF19A2423008F44AE08E010F5D1F4F0E
:100AA000842E912CB12CA12CA50194010E947112CD
:100AB000E62FB901CA01EA3044F5E05DD801EE93B2
:100AC0008D01232B242B252B79F790E080E01097C4
:100AD00069F0FD0101900020E9F73197AF014A1B51
:100AE0005B0BBD0183E593E00E947E01A1960FB6EA
:100AF000F894DEBF0FBECDBFDF91CF911F910F9154
:100B0000BF90AF909F908F900895E95CD7CFCF9220
:100B1000DF92EF92FF926C01990FEE08FF08F7FE4B
:100B200016C041E06DE283E593E00E941F03662753
:100B30007727CB016C197D098E099F094AE00E9435
:100B400039050196FF90EF90DF90CF9008954AE02D
:100B5000C701B601FF90EF90DF90CF900C9439055C
:100B6000FC0101900020E9F73197AF01481B590BB8
:100B7000BC0183E593E00C947E01FC0180819181AE
:100B8000009711F00C94501408950F931F93CF9376
:100B9000DF93EC0188819981009759F02A813B818C
:100BA0002617370730F081E0DF91CF911F910F9129
:100BB00008958B016F5F7F4F0E94D914009759F001
:100BC000998388831B830A832C813D81232B59F7CA
:100BD000FC011082E8CF80E0E7CFEF92FF920F9305
:100BE0001F93CF93DF93EC017B018A01BA010E942E
:100BF000C50528813981811114C02115310519F0ED
:100C0000C9010E945014198218821D821C821B8205
:100C10001A82CE01DF91CF911F910F91FF90EF903B
:100C200008951D830C83B701C9010E949F15F1CF60
:100C3000EF92FF920F931F93CF93DF93CDB7DEB761
:100C400062970FB6F894DEBF0FBECDBF8C01CB010B
:100C5000F8011182108213821282158214824AE0F6
:100C60009E012F5F3F4F7901B9010E940611F701E4
:100C700001900020E9F73197AF014E195F09B701E4
:100C8000C8010E94ED0562960FB6F894DEBF0FBE54
:100C9000CDBFDF91CF911F910F91FF90EF900895FD
:100CA000FB01DC0111961C921E9213961C921E925F
:100CB000129715961C921E9214978617970749F063
:100CC000608171816115710521F0448155810C9419
:100CD000ED050895FC0111821082138212821582A3
:100CE0001482FB0101900020E9F73197AF01461B08
:100CF000570B0C94ED051F920F920FB60F92112413
:100D00002F933F938F939F93AF93BF9380914E0206
:100D100090914F02A0915002B091510230914D023A
:100D200023E0230F2D3758F50196A11DB11D209307
:100D30004D0280934E0290934F02A0935002B093C5
:100D400051028091520290915302A0915402B091AD
:100D500055020196A11DB11D80935202909353023A
:100D6000A0935402B0935502BF91AF919F918F9180
:100D70003F912F910F900FBE0F901F90189526E86E
:100D8000230F0296A11DB11DD2CF1F920F920FB655
:100D90000F9211242F933F934F935F936F937F9301
:100DA0008F939F93AF93BF93EF93FF93E0910201D3
:100DB000F09103010995FF91EF91BF91AF919F9140
:100DC0008F917F916F915F914F913F912F910F90F4
:100DD0000FBE0F901F9018951F920F920FB60F9293
:100DE00011242F933F934F935F936F937F938F9330
:100DF0009F93AF93BF93EF93FF93E0910001F09126
:100E000001010995FF91EF91BF91AF919F918F9152
:100E10007F916F915F914F913F912F910F900FBEF6
:100E20000F901F9018951F920F920FB60F921124DA
:100E30002F933F934F935F936F937F938F939F93E2
:100E4000AF93BF93EF93FF9386E592E00E94FC017E
:100E5000FF91EF91BF91AF919F918F917F916F9192
:100E60005F914F913F912F910F900FBE0F901F9068
:100E700018951F920F920FB60F9211242F938F93F4
:100E80009F93EF93FF93E0916602F0916702808158
:100E9000E0916C02F0916D0282FD1BC09081809107
:100EA0006F028F5F8F7320917002821741F0E09183
:100EB0006F02F0E0EA5AFD4F958F80936F02FF9129
:100EC000EF919F918F912F910F900FBE0F901F90D8
:100ED00018958081F4CF109259021092580288EE32
:100EE00093E0A0E0B0E080935A0290935B02A0935D
:100EF0005C02B0935D0286E191E09093570280938B
:100F0000560285EC90E0909363028093620284EC39
:100F100090E0909365028093640280EC90E090935F
:100F200067028093660281EC90E09093690280935F
:100F3000680282EC90E090936B0280936A0286ECE8
:100F400090E090936D0280936C0210926F02109269
:100F50007002109271021092720210928E0310921F
:100F60008D0361E08AE00E94D40060E08EE00E9480
:100F7000D40060E08FE00E94D4008AE090E090937B
:100F80006C0380936B038EE090E090936E038093EC
:100F90006D038FE090E09093700380936F03109245
:100FA00092051092910510927203109271031092A3
:100FB000740310927303E5E7F3E0119233E0E53830
:100FC000F307D9F790E080E026E0289FF001299F01
:100FD000F00D1124ED56FA4FDF01322F1D923A9594
:100FE000E9F701968430910581F71092560310922B
:100FF000550388E291E0909354038093530384E077
:10100000809357038FEF8093580385E080935903B3
:1010100020935A0387E080935B0388E080935C030E
:1010200089E080935D0310925E0310925F0310923B
:101030006003109261031092620381E00E948003BA
:1010400060E371E08DE493E00E946A0661E471E080
:1010500087E493E00E946A0662E571E081E493E030
:101060000E946A0663E671E08BE393E00E946A06E1
:1010700065E771E085E393E00E946A0664E871E049
:101080008FE293E00E946A0661E971E089E293E0F1
:101090000E946A0662EA71E083E293E00E946A06B7
:1010A00063EB71E08DE193E00E946A0664EC71E00D
:1010B00087E193E00E946A0665ED71E081E193E0CB
:1010C0000E946A0666EE71E08BE093E00E946A0679
:1010D00067EF71E085E093E00E946A0668E072E0E5
:1010E0008FEF92E00E946A066FE072E089EF92E073
:1010F0000E946A0660E272E083EF92E00C946A0656
:10110000CF93DF93CDB7DEB7A4970FB6F894DEBFC9
:101110000FBECDBF789484B5826084BD84B58160F4
:1011200084BD85B5826085BD85B5816085BD8091B2
:101130006E00816080936E0010928100809181002A
:101140008260809381008091810081608093810022
:10115000809180008160809380008091B1008460E4
:101160008093B1008091B00081608093B000809145
:101170007A00846080937A0080917A008260809304
:101180007A0080917A00816080937A0080917A0061
:10119000806880937A001092C100E0916602F0911D
:1011A000670282E08083E0916202F0916302108224
:1011B000E0916402F09165028FEC808310926E02E0
:1011C000E0916A02F0916B0286E08083E091680210
:1011D000F0916902808180618083E0916802F091E2
:1011E0006902808188608083E0916802F0916902E1
:1011F000808180688083E0916802F091690280813B
:101200008F7D80831FB7F89480914202811127C09F
:10121000E6E8F0E08491EAE9F0E09491E82FF0E06C
:10122000EE0FFF1FE859FF4FA591B491EC91E92310
:1012300021F461E08AE00E94880061E08AE00E9477
:10124000D4008CB580618CBD8CB580648CBD61E0B0
:101250008DE00E94D40061E08BE00E94D400809178
:1012600042028F5F809342021FBF61E080916B0357
:101270000E94880061E08CE00E94BE0260E08FE086
:101280000E94BE0260E089E00E94BE0267E08BE03F
:101290000E94BE0261E08AE00E94BE0260E082E03D
:1012A0000E94D40060E083E00E94D40085E791E0D2
:1012B0009093010180930001809169008360809385
:1012C0006900E89A89E791E0909303018093020115
:1012D000809169008C6080936900E99A82E00E94A5
:1012E000800367E473E08E010F5F1F4F3801C80170
:1012F0000E9450066DE473E0CE0107960E945006EE
:10130000B801CE0107960E942F04CE0107960E94D5
:10131000BD05C8010E94BD050E943F01C8010E9491
:10132000580489819A81019629F41A821982C3018D
:101330000E94BE048E01045E1F4F1E8F0D8F2FB7BB
:10134000F89460914E0270914F02809150029091FA
:1013500051022FBF0E9440116B017C01209143027A
:101360003091440240914502509146020E94A212DF
:101370009B01AC01C0924302D0924402E09245022C
:10138000F09246026091490270914A0280914B02AC
:1013900090914C020E94A3126093490270934A02FA
:1013A00080934B0290934C02009171031091720351
:1013B000B801CE0143960E941806B801CE010D96E1
:1013C0000E941806E0907103F090720325E1E21686
:1013D000F10481F039E1E316F10461F040E2E41632
:1013E000F10441F08AE2E816F10421F090E4E916F4
:1013F000F104E9F48091730390917403E816F906FF
:10140000B1F020E030E040E85FE3609104017091CA
:10141000050180910601909107010E94A31260933B
:101420000401709305018093060190930701F092E7
:101430007403E0927303809191059091920581303D
:10144000910509F4E7C1C0F0029709F4E7C3CE01A2
:101450000D960E94BD05CE0143960E94BD0580E019
:1014600090E0892B09F46BCF0E94E801882309F4EE
:1014700061CF0E9400005ECF00E010E020E430E485
:101480000093040110930501209306013093070196
:10149000E5E7F3E0119213E0E538F107D9F70E9490
:1014A000960220E030E04AE754E4609149027091EE
:1014B0004A0280914B0290914C020E9481131816AF
:1014C000FCF46BE373E0C3010E94500661E473E037
:1014D000CE0107960E945006B301CE0107960E94E6
:1014E0002F04CE0107960E94BD05C3010E94BD05D1
:1014F0001092490210924A0210924B0210924C0232
:1015000080914802882329F1F894C3010E9458046D
:1015100089819A817894892B09F06FC06BE073E020
:10152000C3010E94500661E173E0CE0107960E945C
:101530005006B301CE0107960E942F04CE010796F4
:101540000E94BD05C3010E94BD050E943F0110928B
:10155000480280914702882309F479CF10927203E0
:101560001092710382E090E090938E0380938D033C
:101570000E94AE1026E030E040E050E00E940812E9
:101580006F5F7F4F8F4F9F4F7093960360939503CC
:101590000E94AE102EE030E040E050E00E940812C1
:1015A0006F5F7F4F8F4F9F4F7093980360939703A8
:1015B0000E94AE1024E030E040E050E00E940812AB
:1015C0007093900360938F036130710509F400C13B
:1015D00008F4ECC06230710509F400C16330710594
:1015E00009F40AC10E94DF0481E090E09093920523
:1015F00080939105109247022ACF63E273E0C30102
:101600000E94500669E273E0CE0107960E945006E0
:10161000B301CE0107960E942F04CE0107960E94C7
:10162000BD05C3010E94BD050E943F0167E173E053
:10163000C3010E9450066DE173E0CE0107960E943F
:101640005006B301CE0107960E942F04CE010796E3
:101650000E94BD05C3010E94BD050E943F01F89490
:101660000E948F04C3010E94580409811A810E94BC
:10167000780380E00E9421048DE392E00E94B0058F
:1016800080919705909198058436910524F480E423
:1016900092E00E94B00583E995E00E94B0058FE8D2
:1016A00091E00E94B00580919705909198050E9465
:1016B00087058CE392E00E94B00580919705909198
:1016C00098050A9724F480E492E00E94B00581E036
:1016D0000E942104023011050CF465C080919D0523
:1016E00090919E058A3091050CF04DC08FE392E0F9
:1016F0000E94B00589E995E00E94B0058FE891E06D
:101700000E94B00580919D0590919E050E948705DD
:101710000230110509F444C08FE392E00E94B00545
:101720008FE995E00E94B0058FE891E00E94B00536
:101730008091A3059091A4050E9487058091A3053F
:101740009091A4058A3091052CF58FE392E00E94D8
:10175000B00510929305109298051092970510927B
:10176000990510929E0510929D0510929F0510926A
:10177000A4051092A3051092A5051092AA05109237
:10178000A9057894E2CE843691050CF0B3CF80E4BD
:1017900092E0AECF84369105E4F680E492E0D7CFB4
:1017A00088E392E0D4CF81E392E0D1CF809195039A
:1017B0009091960301969093920380939103809168
:1017C00097039091980390939403809393030ACF87
:1017D00080919503909196030197EDCF80919503A9
:1017E0009091960390939203809391038091970335
:1017F000909198030197E7CF80919503909196037C
:101800009093920380939103809197039091980312
:101810000196D9CF80916D030E9405018C018091C2
:101820006F030E94050120918F03309190032130B6
:10183000310509F4AAC008F49AC02230310509F430
:1018400079C02330310509F489C020910401309119
:101850000501409106015091070160E070E08AE7C0
:1018600094E40E940F132091490230914A02409162
:101870004B0250914C020E943B1187FFC3C1E5E728
:10188000F3E00BE613E0119233E0E538F307D9F704
:1018900080918D0390918E0320918F03309190035E
:1018A0002130310509F497C008F478C022303105A1
:1018B00009F49DC02330310509F4B2C02091890399
:1018C00030918A032830310509F0C3C010928A0391
:1018D0001092890320918B0330918C0320313105C4
:1018E00009F0C2C010928C0310928B03609189039F
:1018F00070918A0340918B0350918C03EBE6F3E0E7
:1019000030E020E0A2E0B0E0281739070CF0B7C0C3
:10191000E6A0F7A06E157F0549F4E0A4F1A44E15EA
:101920005F0521F4B0939205A09391052F5F3F4F7F
:101930003496EACF873C21E092072CF41092900372
:1019400010928F0382CF8C3292400CF47ECF81E0D4
:1019500090E09093900380938F0377CF873C41E092
:10196000940764F38C3292400CF46FCFF0CF073CB5
:10197000B1E01B071CF483E090E0EBCF0C32124087
:101980000CF463CF82E090E0E4CF073CF1E01F0766
:1019900094F30C3212400CF458CFF4CFFC01EE0F4C
:1019A000FF1FEE0FFF1FE559FC4F22A133A121506D
:1019B000310930938A0320938903FC01EE0FFF1F46
:1019C000EE0FFF1FE959FC4F20A531A530938C0382
:1019D00020938B0373CFFC01EE0FFF1FEE0FFF1F51
:1019E000E559FC4F22A133A12F5F3F4FE2CFFC010D
:1019F000EE0FFF1FEE0FFF1FE559FC4F22A133A191
:101A000030938A0320938903FC01EE0FFF1FEE0F32
:101A1000FF1FE959FC4F20A531A52F5F3F4FD6CFBF
:101A2000FC01EE0FFF1FEE0FFF1FE559FC4F22A137
:101A300033A130938A0320938903FC01EE0FFF1F2B
:101A4000EE0FFF1FE959FC4F20A531A521503109A8
:101A5000BDCF2F3F3F4F09F03DCF27E030E030931F
:101A60008A032093890336CF2F3F3F4F09F03ECFA3
:101A70002FE030E030938C0320938B0337CF2091FD
:101A80008503309186032617370709F069C0209136
:101A90008703309188034217530709F061C02091F2
:101AA0007103309172032F5F3F4F30937203209385
:101AB0007103019690938E0380938D038038910576
:101AC00009F04BC082E090E09093920580939105DD
:101AD000E0908D03F0908E03F701EE0FFF1FEE0FE5
:101AE000FF1FE559FC4F8091890390918A0393A3CE
:101AF00082A3F701EE0FFF1FEE0FFF1FE959FC4F06
:101B000080918B0390918C0391A780A730E020E017
:101B10000C5F1F4F2E153F05BCF5F80184A195A160
:101B2000FC0197FD3796E87FD80192964D915C9124
:101B3000E40FF51FE559FC4F68E070E00E94861342
:101B400040E850E002C0559547958A95E2F78285B6
:101B5000842B82872F5F3F4FDBCF0E94DF04B8CFFB
:101B6000EBE6F3E021E030E03496281739070CF07B
:101B7000AFCF46A157A153A342A340A551A555A35A
:101B800044A32F5F3F4FF0CF80918703909188034C
:101B9000FC0197FD3796E87F2091850330918603FD
:101BA000E20FF31FE559FC4F68E070E00E948613D6
:101BB00020E830E002C0359527958A95E2F78285C6
:101BC000822B8287BE016D5E7F4FC3010E9450064B
:101BD00065E373E0CE0107960E945006B301CE0183
:101BE00007960E942F04CE0107960E94BD05C301EF
:101BF0000E94BD051092490210924A0210924B02B7
:101C000010924C020E94960280914702882309F4A8
:101C10001ECC1092920510929105ECCCE5E7F3E012
:101C20001192B3E0E538FB07D9F70E949602BE0196
:101C3000635F7F4FC3010E9450066FE273E0CE01E5
:101C400007960E945006B301CE0107960E942F040A
:101C5000CE0107960E94BD05C3010E94BD050E94EA
:101C60003F01F89486E0F30111928A95E9F7CE01DD
:101C700007960E9458048F8198858330910509F456
:101C800054C08230910509F456C0892B09F056C022
:101C90008D819E817894801791070CF0CEC146E02B
:101CA00050E068E072E08FEF92E00E94ED056FEF88
:101CB00072E0C3010E94500665E073E0CE01079612
:101CC0000E945006B301CE0107960E942F04CE0158
:101CD00007960E94BD05C3010E94BD0586E592E0FE
:101CE0000E94DC01892BD1F36E01F9E1CF0ED11CEA
:101CF00086E592E00E94DC01892BD1F386E592E033
:101D00000E94BA012D8D3E8D2C153D05D1F41C8EFF
:101D100086E592E00E94DC012C01892B09F44DC07C
:101D200086E592E00E94BA01F3CF8EE090E0B30125
:101D30000E946904ADCF88E090E0F9CF82E090E0A6
:101D4000F6CFD6018D936D0189831A82E09003034B
:101D5000F0900403BFEFEB1AFB0AB7018FEF92E09C
:101D60000E94C505882389F02091FF02309100036D
:101D70008091030390910403B301820F931F0E948B
:101D80009F15F0920403E09203036FEF72E0C3012A
:101D90000E94500665E073E0CE0107960E9450064F
:101DA000B301CE0107960E942F04CE0107960E9430
:101DB000BD05C3010E94BD059BCFF8940E948F040E
:101DC000B3E9AB2EB5E0BB2EF50130E020E0808119
:101DD000882331F02F5F3F4F369624303105B9F715
:101DE00046E0429FC001439F900D112485599C4FAE
:101DF000FC01E85DFD4F298D208331962A8D2083DB
:101E000031962B8D208331962C8D2083845D9D4FC0
:101E1000FC0111830083E3E9F5E0D12CC12C808122
:101E2000882341F00FEFC01AD00A369614E0C1168D
:101E3000D104A9F7E3E9F5E090E080E096012150B4
:101E400031093AA329A3A9A1BAA18A179B070CF0CB
:101E500076C01C01BFEF2B1A3B0ABF0168527240CB
:101E60009C01A1014C155D05E9F0A6E0FA2EF29E59
:101E7000D001F39EB00D11248D0109561A4F78013F
:101E80008B010E5C1D4FD8010D911C91D701ED9077
:101E9000FC90E016F1060CF49A014F5F5F4F6A5F09
:101EA0007F4FE0CF8217930709F446C0B081BF8F00
:101EB00081809280F380F8A20481158146E0429FE0
:101EC000D001439FB00D1124CD0185599C4F9CA397
:101ED0008BA3BC01685D7D4FDB018C9180834BA19E
:101EE0005CA1475D5D4FDA018C9181832BA13CA100
:101EF000265D3D4FD9018C9182838BA19CA1855D8C
:101F00009D4FDC01FC90F382ABA1BCA1A45DBD4F51
:101F1000BCA3ABA3ED90FC90F582E482FF8CDB01C7
:101F2000FC92DA018C92D9019C92F8A0DC01FC921F
:101F3000ABA1BCA10D931C933696C10184CF10E0D8
:101F400000E0F5018081882351F00F5F1F4FF6E01C
:101F5000AF0EB11C04301105A1F703E010E082E0E0
:101F6000E82EF12C0415150519F197012F563A4F5B
:101F70005901D12CC12CD5013D905D0147018C0C3C
:101F80009D1CC4010E94F211381621F0632DC4017A
:101F90000E94FA11BFEFCB1ADB0AE6E0CE16D1049D
:101FA00051F7FFEF4F1A5F0A26E0E20EF11CDACF7D
:101FB000C3010E94580489819A81833091051CF4E1
:101FC00001969A838983CE0101960E94BE041092E5
:101FD000930510929805109297051092990510920A
:101FE0009E0510929D0510929F051092A4051092D7
:101FF000A3051092A5051092AA051092A905789440
:1020000063EF72E0CE0101960E94500669EF72E024
:10201000CE0107960E945006BE016F5F7F4FCE0132
:1020200007960E942F04CE0107960E94BD05CE019F
:1020300001960E94BD050E943F01109292051092E8
:10204000910505CA83EF92E00E94BD0589EF92E0F9
:102050000E94BD058FEF92E00E94BD0585E093E0F0
:102060000E94BD058BE093E00E94BD0581E193E0F5
:102070000E94BD0587E193E00E94BD058DE193E0DC
:102080000E94BD0583E293E00E94BD0589E293E0D2
:102090000E94BD058FE293E00E94BD0585E393E0B9
:1020A0000E94BD058BE393E00E94BD0581E493E0AF
:1020B0000E94BD0587E493E00E94BD058DE493E096
:1020C0000C94BD058F929F92AF92BF92CF92DF92F8
:1020D000EF92FF92CF93DF93EC01688179818A813F
:1020E0009B81611571058105910521F464E279ED0B
:1020F0008BE597E02DE133EF41E050E00E940812BC
:1021000049015A019B01AC01A7EAB1E40E942712E0
:102110006B017C01ACEEB4EFA50194010E94351275
:10212000C60ED71EE81EF91EF7FE06C081E0C81ACB
:10213000D108E10880E8F80AC882D982EA82FB82E5
:10214000C701B6019F77DF91CF91FF90EF90DF90AD
:10215000CF90BF90AF909F908F9008958F929F9255
:10216000AF92BF92CF92DF92EF92FF9260910801FF
:102170007091090180910A0190910B01611571051F
:102180008105910521F464E279ED8BE597E02DE17D
:1021900033EF41E050E00E94081249015A019B01CF
:1021A000AC01A7EAB1E40E9427126B017C01ACEEFE
:1021B000B4EFA50194010E943512C60ED71EE81E89
:1021C000F91EF7FE06C081E0C81AD108E10880E8D0
:1021D000F80AC0920801D0920901E0920A01F09237
:1021E0000B01C701B6019F77FF90EF90DF90CF9072
:1021F000BF90AF909F908F90089560930801709367
:10220000090180930A0190930B010895BB274A307E
:1022100031F4992322F4BDE2909581959F4F0C945F
:102220001211BB27FB015527AA27880F991FAA1F48
:10223000A41710F0A41B83955051B9F7A05DAA33E1
:1022400008F0A95DA193009779F7B111B1931192AC
:10225000CB010C942B11DC01FC01672F71917723CA
:10226000E1F7329704C07C916D9370836291AE1751
:10227000BF07C8F308950E947D1108F481E0089516
:10228000E89409C097FB3EF4909580957095619510
:102290007F4F8F4F9F4F9923A9F0F92F96E9BB27C6
:1022A0009395F695879577956795B795F111F8CF42
:1022B000FAF4BB0F11F460FF1BC06F5F7F4F8F4FAD
:1022C0009F4F16C0882311F096E911C0772321F0A3
:1022D0009EE8872F762F05C0662371F096E8862F3B
:1022E00070E060E02AF09A95660F771F881FDAF792
:1022F000880F9695879597F90895990F0008550FBF
:10230000AA0BE0E8FEEF16161706E807F907C0F07B
:1023100012161306E407F50798F0621B730B840B83
:10232000950B39F40A2661F0232B242B252B21F45D
:1023300008950A2609F4A140A6958FEF811D811DFD
:10234000089597F99F6780E870E060E008959FEF37
:1023500080EC089500240A9416161706180609063C
:10236000089500240A94121613061406050608950B
:10237000092E0394000C11F4882352F0BB0F40F493
:10238000BF2B11F460FF04C06F5F7F4F8F4F9F4FD3
:10239000089557FD9058440F551F59F05F3F71F055
:1023A0004795880F97FB991F61F09F3F79F08795BC
:1023B0000895121613061406551FF2CF4695F1DF45
:1023C00008C0161617061806991FF1CF86957105D5
:1023D000610508940895E894BB2766277727CB0109
:1023E00097F90895F999FECF92BD81BDF89A992782
:1023F00080B50895262FF999FECF1FBA92BD81BDF1
:1024000020BD0FB6F894FA9AF99A0FBE0196089576
:10241000052E97FB1EF400940E941F1257FD07D053
:102420000E94711207FC03D04EF40C941F125095B9
:102430004095309521953F4F4F4F5F4F08959095B0
:102440008095709561957F4F8F4F9F4F08950E94A3
:102450009312A59F900DB49F900DA49F800D911D88
:1024600011240895B7FF0C9427120E942712821B93
:10247000930B08952F923F924F925F926F927F92AB
:102480008F929F92AF92BF92CF92DF92EF92FF9284
:102490000F931F93CF93DF93CDB7DEB7CA1BDB0B30
:1024A0000FB6F894DEBF0FBECDBF09942A883988D5
:1024B00048885F846E847D848C849B84AA84B984DC
:1024C000C884DF80EE80FD800C811B81AA81B981E8
:1024D000CE0FD11D0FB6F894DEBF0FBECDBFED01FC
:1024E0000895A1E21A2EAA1BBB1BFD010DC0AA1F55
:1024F000BB1FEE1FFF1FA217B307E407F50720F06D
:10250000A21BB30BE40BF50B661F771F881F991FE7
:102510001A9469F760957095809590959B01AC0130
:10252000BD01CF010895A29FB001B39FC001A39F39
:10253000700D811D1124911DB29F700D811D1124FC
:10254000911D08955058BB27AA270E94BA120C94D7
:10255000B8110E94AA1138F00E94B11120F039F48C
:102560009F3F19F426F40C94A7110EF4E095E7FBB5
:102570000C94A111E92F0E94C91158F3BA176207F0
:1025800073078407950720F079F4A6F50C94EB11F6
:102590000EF4E0950B2EBA2FA02D0B01B90190017E
:1025A0000C01CA01A0011124FF27591B99F0593FC2
:1025B00050F4503E68F11A16F040A22F232F342F0A
:1025C0004427585FF3CF469537952795A795F04058
:1025D0005395C9F77EF41F16BA0B620B730B840B6D
:1025E000BAF09150A1F0FF0FBB1F661F771F881F25
:1025F000C2F70EC0BA0F621F731F841F48F487957D
:1026000077956795B795F7959E3F08F0B0CF93956E
:10261000880F08F09927EE0F9795879508950E94E7
:1026200023130C94B8110E94B11158F00E94AA1102
:1026300040F029F45F3F29F00C94A11151110C9442
:10264000EC110C94A7110E94C91168F39923B1F3FE
:10265000552391F3951B550BBB27AA2762177307C8
:10266000840738F09F5F5F4F220F331F441FAA1F5C
:10267000A9F335D00E2E3AF0E0E832D09150504018
:10268000E695001CCAF72BD0FE2F29D0660F771FC6
:10269000881FBB1F261737074807AB07B0E809F0AC
:1026A000BB0B802DBF01FF2793585F4F3AF09E3F31
:1026B000510578F00C94A1110C94EC115F3FE4F3F8
:1026C000983ED4F3869577956795B795F7959F5F74
:1026D000C9F7880F911D9695879597F90895E1E0C0
:1026E000660F771F881FBB1F621773078407BA071F
:1026F00020F0621B730B840BBA0BEE1F88F7E0957A
:1027000008950E947D1108F48FEF089597FB072E1E
:1027100016F4009407D077FD09D00E949A1307FCA5
:1027200005D03EF4909581959F4F089570956195E1
:102730007F4F0895AA1BBB1B51E107C0AA1FBB1FF7
:10274000A617B70710F0A61BB70B881F991F5A953D
:10275000A9F780959095BC01CD010895EE0FFF1F5C
:102760000590F491E02D09940F931F93CF93DF937D
:102770008230910510F482E090E0E091AD05F09197
:10278000AE0530E020E0B0E0A0E0309799F42115EC
:10279000310509F44AC0281B390B24303105D8F51E
:1027A0008A819B816115710589F1FB019383828385
:1027B000FE0111C0408151810281138148175907E0
:1027C000E0F04817590799F4109761F012960C93AE
:1027D000129713961C933296CF01DF91CF911F91E0
:1027E0000F9108950093AD051093AE05F4CF211518
:1027F000310551F04217530738F0A901DB019A0166
:10280000BD01DF01F801C1CFEF01F9CF9093AE0513
:102810008093AD05CDCFFE01E20FF31F819391931D
:102820002250310939832883D7CF2091AB053091CD
:10283000AC05232B41F420910E0130910F01309310
:10284000AC052093AB0520910C0130910D012115B1
:10285000310541F42DB73EB740911001509111015F
:10286000241B350BE091AB05F091AC05E217F307A3
:10287000A0F42E1B3F0B2817390778F0AC014E5FF0
:102880005F4F2417350748F04E0F5F1F5093AC057C
:102890004093AB05819391939FCFF0E0E0E09CCF14
:1028A000CF93DF930097E9F0FC01329713821282F5
:1028B000A091AD05B091AE05ED0130E020E010979C
:1028C000A1F420813181820F931F2091AB053091BB
:1028D000AC052817390709F061C0F093AC05E09307
:1028E000AB05DF91CF910895EA01CE17DF07E8F538
:1028F0004A815B819E0141155105B1F7E901FB83D6
:10290000EA8349915991C40FD51FEC17FD0761F473
:10291000808191810296840F951FE90199838883B4
:10292000828193819B838A83F0E0E0E012968D910F
:102930009C9113970097B9F52D913C911197CD017A
:102940000296820F931F2091AB053091AC0528179A
:10295000390739F6309751F51092AE051092AD0552
:10296000B093AC05A093AB05BCCFD383C2834081A9
:102970005181840F951FC817D90761F44E5F5F4FCF
:1029800088819981480F591F518340838A819B8197
:10299000938382832115310509F0B0CFF093AE0502
:1029A000E093AD059ECFFD01DC01C0CF1382128202
:1029B000D7CFB0E0A0E0EFEDF4E10C943C128C0135
:1029C000009751F4CB010E94B4138C01C801CDB71C
:1029D000DEB7E0E10C945812FC01E60FF71F9C01F2
:1029E00022503109E217F30708F49DC0D901CD91B7
:1029F000DC911197C617D70798F0C530D10530F391
:102A0000CE0104978617970708F3C61BD70B2297AA
:102A1000C193D1936D937C93CF010E945014D6CF74
:102A20005B01AC1ABD0A4C018C0E9D1EA091AD0538
:102A3000B091AE05512C412CF12CE12C109731F5C1
:102A40008091AB059091AC058815990509F05CC0A3
:102A50004616570608F058C080910C0190910D0160
:102A6000009741F48DB79EB740911001509111012C
:102A7000841B950BE817F90708F055C0F093AC05D7
:102A8000E093AB05F90171836083A0CF8D919C9198
:102A9000119712966C90129713967C901397A81525
:102AA000B90559F56C0142E0C40ED11CCA14DB040F
:102AB00020F1AC014A195B09DA011296159780F0F2
:102AC0006282738251834083D9016D937C93E114B8
:102AD000F10471F0D7011396FC93EE93129776CF21
:102AE00022968C0F9D1FF90191838083F301EFCF14
:102AF000F093AE05E093AD0569CF4816590608F48A
:102B00002C017D01D3019ACFCB010E94B4137C012B
:102B1000009749F0AE01B8010E949615C8010E94C5
:102B20005014870153CF10E000E050CFFB01DC01CF
:102B300002C001900D9241505040D8F70895FB011A
:102B4000DC0101900D920020E1F7089510E0CDE541
:102B5000D0E004C0FE010E94AE132196CE35D1070D
:062B6000C9F7F894FFCF55
:102B66007D017D0100004040010000000000AF052E
:102B76008000000000001E027E01AB016B02DC013A
:102B8600BA01CE010000000052047E018C028B02C5
:102B96002D2D2D57656C636F6D652D746F2D2D2D45
:102BA600002D2D2D536E616B652D47616D652D2DA5
:102BB6002D00594C57202D2073746172742F717536
:102BC600697400524544202D2073686F7720736323
:102BD6006F72657300596F75722073636F7265202B
:102BE60069733A0046696E616C2073636F72653A69
:102BF600002D2D2D2D43757272656E742D2D2D2D84
:102C06002D002D2D2D53636F7265626F6172642DD9
:102C16002D2D002D2D2D2D2D2D3173742D2D2D2D7A
:102C26002D2D2D002D2D326E642D2D2D2D2D2D3378
:102C360072642D2D002D2D4E6F2D53636F726573AB
:102C46002D496E2D2D002D2D2D2D2D4D656D6F725F
:102C5600792D2D2D2D2D00596F757220332D63681A
:102C660061726163746572006E616D653A20002D54
:102C76002D2D596F75722D73636F72652D2D2D0075
:102C86002D2D2D2D69732D73617665642D2D2D2DBA
:102C9600002D2D2D2D2D2D2D2D2D2D2D2D2D2D2D8B
:022CA6002D00FF
:00000001FF
